{
  "contractName": "Users",
  "abi": [
    {
      "constant": true,
      "inputs": [],
      "name": "InOnePlaceWallet",
      "outputs": [
        {
          "name": "",
          "type": "address"
        }
      ],
      "payable": false,
      "stateMutability": "view",
      "type": "function"
    },
    {
      "constant": true,
      "inputs": [
        {
          "name": "",
          "type": "uint256"
        }
      ],
      "name": "users",
      "outputs": [
        {
          "name": "userAddress",
          "type": "address"
        },
        {
          "name": "active",
          "type": "bool"
        },
        {
          "name": "referrerAddress",
          "type": "address"
        },
        {
          "name": "merchant",
          "type": "bool"
        },
        {
          "name": "remainingFreeTransactions",
          "type": "uint16"
        },
        {
          "name": "superReferrer",
          "type": "bool"
        },
        {
          "name": "superUser",
          "type": "bool"
        }
      ],
      "payable": false,
      "stateMutability": "view",
      "type": "function"
    },
    {
      "constant": true,
      "inputs": [],
      "name": "PrizeDrawWallet",
      "outputs": [
        {
          "name": "",
          "type": "address"
        }
      ],
      "payable": false,
      "stateMutability": "view",
      "type": "function"
    },
    {
      "constant": true,
      "inputs": [
        {
          "name": "",
          "type": "address"
        }
      ],
      "name": "addressToUserIndex",
      "outputs": [
        {
          "name": "",
          "type": "uint256"
        }
      ],
      "payable": false,
      "stateMutability": "view",
      "type": "function"
    },
    {
      "constant": true,
      "inputs": [],
      "name": "usersCount",
      "outputs": [
        {
          "name": "",
          "type": "uint256"
        }
      ],
      "payable": false,
      "stateMutability": "view",
      "type": "function"
    },
    {
      "constant": false,
      "inputs": [],
      "name": "renounceOwnership",
      "outputs": [],
      "payable": false,
      "stateMutability": "nonpayable",
      "type": "function"
    },
    {
      "constant": true,
      "inputs": [],
      "name": "owner",
      "outputs": [
        {
          "name": "",
          "type": "address"
        }
      ],
      "payable": false,
      "stateMutability": "view",
      "type": "function"
    },
    {
      "constant": true,
      "inputs": [],
      "name": "isOwner",
      "outputs": [
        {
          "name": "",
          "type": "bool"
        }
      ],
      "payable": false,
      "stateMutability": "view",
      "type": "function"
    },
    {
      "constant": false,
      "inputs": [
        {
          "name": "newOwner",
          "type": "address"
        }
      ],
      "name": "transferOwnership",
      "outputs": [],
      "payable": false,
      "stateMutability": "nonpayable",
      "type": "function"
    },
    {
      "inputs": [],
      "payable": false,
      "stateMutability": "nonpayable",
      "type": "constructor"
    },
    {
      "anonymous": false,
      "inputs": [
        {
          "indexed": true,
          "name": "previousOwner",
          "type": "address"
        },
        {
          "indexed": true,
          "name": "newOwner",
          "type": "address"
        }
      ],
      "name": "OwnershipTransferred",
      "type": "event"
    },
    {
      "constant": false,
      "inputs": [
        {
          "name": "newContracts",
          "type": "address[]"
        }
      ],
      "name": "addDigitallContracts",
      "outputs": [],
      "payable": false,
      "stateMutability": "nonpayable",
      "type": "function"
    },
    {
      "constant": false,
      "inputs": [
        {
          "name": "newContracts",
          "type": "address[]"
        }
      ],
      "name": "addAssetTokenContracts",
      "outputs": [],
      "payable": false,
      "stateMutability": "nonpayable",
      "type": "function"
    },
    {
      "constant": false,
      "inputs": [
        {
          "name": "newAdmins",
          "type": "address[]"
        }
      ],
      "name": "addAdmins",
      "outputs": [],
      "payable": false,
      "stateMutability": "nonpayable",
      "type": "function"
    },
    {
      "constant": false,
      "inputs": [
        {
          "name": "isMerchant",
          "type": "bool"
        },
        {
          "name": "accountAddress",
          "type": "address"
        }
      ],
      "name": "createUser",
      "outputs": [
        {
          "name": "",
          "type": "uint256"
        }
      ],
      "payable": false,
      "stateMutability": "nonpayable",
      "type": "function"
    },
    {
      "constant": true,
      "inputs": [
        {
          "name": "userAddress",
          "type": "address"
        }
      ],
      "name": "isActive",
      "outputs": [
        {
          "name": "",
          "type": "bool"
        }
      ],
      "payable": false,
      "stateMutability": "view",
      "type": "function"
    },
    {
      "constant": true,
      "inputs": [
        {
          "name": "userAddress",
          "type": "address"
        }
      ],
      "name": "isSuperUser",
      "outputs": [
        {
          "name": "",
          "type": "bool"
        }
      ],
      "payable": false,
      "stateMutability": "view",
      "type": "function"
    },
    {
      "constant": true,
      "inputs": [
        {
          "name": "userAddress",
          "type": "address"
        }
      ],
      "name": "isSuperReferrer",
      "outputs": [
        {
          "name": "",
          "type": "bool"
        }
      ],
      "payable": false,
      "stateMutability": "view",
      "type": "function"
    },
    {
      "constant": true,
      "inputs": [
        {
          "name": "userAddress",
          "type": "address"
        }
      ],
      "name": "isMerchant",
      "outputs": [
        {
          "name": "",
          "type": "bool"
        }
      ],
      "payable": false,
      "stateMutability": "view",
      "type": "function"
    },
    {
      "constant": true,
      "inputs": [
        {
          "name": "_index",
          "type": "uint256"
        }
      ],
      "name": "getUserAddress",
      "outputs": [
        {
          "name": "",
          "type": "address"
        }
      ],
      "payable": false,
      "stateMutability": "view",
      "type": "function"
    },
    {
      "constant": true,
      "inputs": [
        {
          "name": "userAddress",
          "type": "address"
        }
      ],
      "name": "getTransactionFeeValues",
      "outputs": [
        {
          "name": "",
          "type": "uint8[2]"
        }
      ],
      "payable": false,
      "stateMutability": "view",
      "type": "function"
    },
    {
      "constant": true,
      "inputs": [
        {
          "name": "userAddress",
          "type": "address"
        }
      ],
      "name": "getRemainingFreeTransactions",
      "outputs": [
        {
          "name": "",
          "type": "uint16"
        }
      ],
      "payable": false,
      "stateMutability": "view",
      "type": "function"
    },
    {
      "constant": true,
      "inputs": [
        {
          "name": "userAddress",
          "type": "address"
        }
      ],
      "name": "getReferrerAddress",
      "outputs": [
        {
          "name": "",
          "type": "address"
        }
      ],
      "payable": false,
      "stateMutability": "view",
      "type": "function"
    },
    {
      "constant": true,
      "inputs": [
        {
          "name": "userAddress",
          "type": "address"
        }
      ],
      "name": "getExchangeFeeValues",
      "outputs": [
        {
          "name": "",
          "type": "uint8[2]"
        }
      ],
      "payable": false,
      "stateMutability": "view",
      "type": "function"
    },
    {
      "constant": false,
      "inputs": [
        {
          "name": "userAddress",
          "type": "address"
        },
        {
          "name": "newStatus",
          "type": "bool"
        }
      ],
      "name": "setStatus",
      "outputs": [
        {
          "name": "",
          "type": "bool"
        }
      ],
      "payable": false,
      "stateMutability": "nonpayable",
      "type": "function"
    },
    {
      "constant": false,
      "inputs": [
        {
          "name": "userAddress",
          "type": "address"
        },
        {
          "name": "newMerchant",
          "type": "bool"
        }
      ],
      "name": "setMerchant",
      "outputs": [
        {
          "name": "",
          "type": "bool"
        }
      ],
      "payable": false,
      "stateMutability": "nonpayable",
      "type": "function"
    },
    {
      "constant": false,
      "inputs": [
        {
          "name": "userAddress",
          "type": "address"
        },
        {
          "name": "newStatus",
          "type": "bool"
        }
      ],
      "name": "setSuperUser",
      "outputs": [
        {
          "name": "",
          "type": "bool"
        }
      ],
      "payable": false,
      "stateMutability": "nonpayable",
      "type": "function"
    },
    {
      "constant": false,
      "inputs": [
        {
          "name": "userAddress",
          "type": "address"
        },
        {
          "name": "newStatus",
          "type": "bool"
        }
      ],
      "name": "setSuperReferrer",
      "outputs": [
        {
          "name": "",
          "type": "bool"
        }
      ],
      "payable": false,
      "stateMutability": "nonpayable",
      "type": "function"
    },
    {
      "constant": false,
      "inputs": [
        {
          "name": "userAddress",
          "type": "address"
        },
        {
          "name": "newExchangeFeeValues",
          "type": "uint8[2]"
        }
      ],
      "name": "setExchangeFeeValues",
      "outputs": [
        {
          "name": "",
          "type": "bool"
        }
      ],
      "payable": false,
      "stateMutability": "nonpayable",
      "type": "function"
    },
    {
      "constant": false,
      "inputs": [
        {
          "name": "userAddress",
          "type": "address"
        },
        {
          "name": "newTransactionFeeValues",
          "type": "uint8[2]"
        }
      ],
      "name": "setTransactionFeeValues",
      "outputs": [
        {
          "name": "",
          "type": "bool"
        }
      ],
      "payable": false,
      "stateMutability": "nonpayable",
      "type": "function"
    },
    {
      "constant": false,
      "inputs": [
        {
          "name": "userAddress",
          "type": "address"
        },
        {
          "name": "amount",
          "type": "uint16"
        }
      ],
      "name": "increaseRemainingFreeTransactions",
      "outputs": [
        {
          "name": "",
          "type": "bool"
        }
      ],
      "payable": false,
      "stateMutability": "nonpayable",
      "type": "function"
    },
    {
      "constant": false,
      "inputs": [
        {
          "name": "userAddress",
          "type": "address"
        },
        {
          "name": "newRemainingFreeTransactions",
          "type": "uint16"
        }
      ],
      "name": "setRemainingFreeTransactions",
      "outputs": [
        {
          "name": "",
          "type": "bool"
        }
      ],
      "payable": false,
      "stateMutability": "nonpayable",
      "type": "function"
    },
    {
      "constant": false,
      "inputs": [
        {
          "name": "userAddress",
          "type": "address"
        },
        {
          "name": "referrerAddress",
          "type": "address"
        }
      ],
      "name": "setReferrerAddress",
      "outputs": [
        {
          "name": "",
          "type": "bool"
        }
      ],
      "payable": false,
      "stateMutability": "nonpayable",
      "type": "function"
    },
    {
      "constant": false,
      "inputs": [
        {
          "name": "userAddress",
          "type": "address"
        }
      ],
      "name": "decrementFreeTransactions",
      "outputs": [
        {
          "name": "",
          "type": "bool"
        }
      ],
      "payable": false,
      "stateMutability": "nonpayable",
      "type": "function"
    }
  ],
  "bytecode": "0x608060405273ceacce738b5c4e03b45561bfb5b3796b63cfecdd600760006101000a81548173ffffffffffffffffffffffffffffffffffffffff021916908373ffffffffffffffffffffffffffffffffffffffff16021790555073a1c86295e88fcfadef9fb518dc7201c85699d401600860006101000a81548173ffffffffffffffffffffffffffffffffffffffff021916908373ffffffffffffffffffffffffffffffffffffffff160217905550348015620000bb57600080fd5b506000620000ce6200042560201b60201c565b9050806000806101000a81548173ffffffffffffffffffffffffffffffffffffffff021916908373ffffffffffffffffffffffffffffffffffffffff1602179055508073ffffffffffffffffffffffffffffffffffffffff16600073ffffffffffffffffffffffffffffffffffffffff167f8be0079c531659141344cd1fd0a4f28419497f9722a3daafe3b4186f6b6457e060405160405180910390a350620001766200042d565b610120604051908101604052803073ffffffffffffffffffffffffffffffffffffffff168152602001600015158152602001600073ffffffffffffffffffffffffffffffffffffffff1681526020016001151581526020016040805190810160405280600060ff168152602001600160ff1681525081526020016040805190810160405280600060ff168152602001600160ff168152508152602001600061ffff16815260200160011515815260200160011515815250905060006001829080600181540180825580915050906001820390600052602060002090600502016000909192909190915060008201518160000160006101000a81548173ffffffffffffffffffffffffffffffffffffffff021916908373ffffffffffffffffffffffffffffffffffffffff16021790555060208201518160000160146101000a81548160ff02191690831515021790555060408201518160010160006101000a81548173ffffffffffffffffffffffffffffffffffffffff021916908373ffffffffffffffffffffffffffffffffffffffff16021790555060608201518160010160146101000a81548160ff02191690831515021790555060808201518160020190600262000346929190620004c2565b5060a08201518160030190600262000360929190620004c2565b5060c08201518160040160006101000a81548161ffff021916908361ffff16021790555060e08201518160040160026101000a81548160ff0219169083151502179055506101008201518160040160036101000a81548160ff0219169083151502179055505050905060006001820390508160038190555080600260003073ffffffffffffffffffffffffffffffffffffffff1673ffffffffffffffffffffffffffffffffffffffff16815260200190815260200160002081905550505050620005b8565b600033905090565b61016060405190810160405280600073ffffffffffffffffffffffffffffffffffffffff168152602001600015158152602001600073ffffffffffffffffffffffffffffffffffffffff1681526020016000151581526020016200049062000563565b81526020016200049f62000563565b8152602001600061ffff1681526020016000151581526020016000151581525090565b826002601f01602090048101928215620005505791602002820160005b838211156200051f57835183826101000a81548160ff021916908360ff1602179055509260200192600101602081600001049283019260010302620004df565b80156200054e5782816101000a81549060ff02191690556001016020816000010492830192600103026200051f565b505b5090506200055f919062000585565b5090565b6040805190810160405280600290602082028038833980820191505090505090565b620005b591905b80821115620005b157600081816101000a81549060ff0219169055506001016200058c565b5090565b90565b613c4a80620005c86000396000f3fe6080604052600436106101795760003560e01c63ffffffff16806309f908661461017e5780631a2f7167146102075780632533c95f1461027057806335a69411146102c7578063365b98b2146103385780633cf269a5146104215780633d6ac3e9146104ae57806342867a3e1461052557806345655b4e1461059a5780635115b66f1461060f578063562fe8d91461066657806361799c22146106f35780636a5cce96146107585780636ba13a82146107c1578063715018a6146107ec57806377437dad14610803578063801ae66f146108705780638c3098e8146108e55780638da5cb5b1461095c5780638f32d59b146109b357806390073f72146109e257806390d976e214610aa75780639c54df6414610b225780639f8a13d714610be7578063b304f21c14610c50578063b8d04f4e14610cc5578063c1ca41ed14610d56578063cd784d1b14610e00578063ce8f305d14610e69578063d5af1cf214610f13578063f2fde38b14610f7c578063f5de34d214610fcd575b600080fd5b34801561018a57600080fd5b506101ed600480360360408110156101a157600080fd5b81019080803573ffffffffffffffffffffffffffffffffffffffff169060200190929190803573ffffffffffffffffffffffffffffffffffffffff169060200190929190505050611092565b604051808215151515815260200191505060405180910390f35b34801561021357600080fd5b506102566004803603602081101561022a57600080fd5b81019080803573ffffffffffffffffffffffffffffffffffffffff169060200190929190505050611283565b604051808215151515815260200191505060405180910390f35b34801561027c57600080fd5b506102856113b8565b604051808273ffffffffffffffffffffffffffffffffffffffff1673ffffffffffffffffffffffffffffffffffffffff16815260200191505060405180910390f35b3480156102d357600080fd5b50610322600480360360408110156102ea57600080fd5b81019080803515159060200190929190803573ffffffffffffffffffffffffffffffffffffffff1690602001909291905050506113de565b6040518082815260200191505060405180910390f35b34801561034457600080fd5b506103716004803603602081101561035b57600080fd5b810190808035906020019092919050505061174e565b604051808873ffffffffffffffffffffffffffffffffffffffff1673ffffffffffffffffffffffffffffffffffffffff168152602001871515151581526020018673ffffffffffffffffffffffffffffffffffffffff1673ffffffffffffffffffffffffffffffffffffffff168152602001851515151581526020018461ffff1661ffff168152602001831515151581526020018215151515815260200197505050505050505060405180910390f35b34801561042d57600080fd5b506104706004803603602081101561044457600080fd5b81019080803573ffffffffffffffffffffffffffffffffffffffff169060200190929190505050611821565b6040518082600260200280838360005b8381101561049b578082015181840152602081019050610480565b5050505090500191505060405180910390f35b3480156104ba57600080fd5b5061050b600480360360408110156104d157600080fd5b81019080803573ffffffffffffffffffffffffffffffffffffffff169060200190929190803561ffff1690602001909291905050506119b0565b604051808215151515815260200191505060405180910390f35b34801561053157600080fd5b506105806004803603604081101561054857600080fd5b81019080803573ffffffffffffffffffffffffffffffffffffffff169060200190929190803515159060200190929190505050611b7d565b604051808215151515815260200191505060405180910390f35b3480156105a657600080fd5b506105f5600480360360408110156105bd57600080fd5b81019080803573ffffffffffffffffffffffffffffffffffffffff169060200190929190803515159060200190929190505050611d47565b604051808215151515815260200191505060405180910390f35b34801561061b57600080fd5b50610624611f11565b604051808273ffffffffffffffffffffffffffffffffffffffff1673ffffffffffffffffffffffffffffffffffffffff16815260200191505060405180910390f35b34801561067257600080fd5b506106b56004803603602081101561068957600080fd5b81019080803573ffffffffffffffffffffffffffffffffffffffff169060200190929190505050611f37565b6040518082600260200280838360005b838110156106e05780820151818401526020810190506106c5565b5050505090500191505060405180910390f35b3480156106ff57600080fd5b506107426004803603602081101561071657600080fd5b81019080803573ffffffffffffffffffffffffffffffffffffffff1690602001909291905050506120c6565b6040518082815260200191505060405180910390f35b34801561076457600080fd5b506107a76004803603602081101561077b57600080fd5b81019080803573ffffffffffffffffffffffffffffffffffffffff1690602001909291905050506120de565b604051808215151515815260200191505060405180910390f35b3480156107cd57600080fd5b506107d6612213565b6040518082815260200191505060405180910390f35b3480156107f857600080fd5b50610801612219565b005b34801561080f57600080fd5b506108526004803603602081101561082657600080fd5b81019080803573ffffffffffffffffffffffffffffffffffffffff169060200190929190505050612354565b604051808261ffff1661ffff16815260200191505060405180910390f35b34801561087c57600080fd5b506108cb6004803603604081101561089357600080fd5b81019080803573ffffffffffffffffffffffffffffffffffffffff16906020019092919080351515906020019092919050505061248a565b604051808215151515815260200191505060405180910390f35b3480156108f157600080fd5b506109426004803603604081101561090857600080fd5b81019080803573ffffffffffffffffffffffffffffffffffffffff169060200190929190803561ffff169060200190929190505050612654565b604051808215151515815260200191505060405180910390f35b34801561096857600080fd5b50610971612834565b604051808273ffffffffffffffffffffffffffffffffffffffff1673ffffffffffffffffffffffffffffffffffffffff16815260200191505060405180910390f35b3480156109bf57600080fd5b506109c861285d565b604051808215151515815260200191505060405180910390f35b3480156109ee57600080fd5b50610aa560048036036020811015610a0557600080fd5b8101908080359060200190640100000000811115610a2257600080fd5b820183602082011115610a3457600080fd5b80359060200191846020830284011164010000000083111715610a5657600080fd5b919080806020026020016040519081016040528093929190818152602001838360200280828437600081840152601f19601f8201169050808301925050505050505091929192905050506128bb565b005b348015610ab357600080fd5b50610ae060048036036020811015610aca57600080fd5b8101908080359060200190929190505050612982565b604051808273ffffffffffffffffffffffffffffffffffffffff1673ffffffffffffffffffffffffffffffffffffffff16815260200191505060405180910390f35b348015610b2e57600080fd5b50610be560048036036020811015610b4557600080fd5b8101908080359060200190640100000000811115610b6257600080fd5b820183602082011115610b7457600080fd5b80359060200191846020830284011164010000000083111715610b9657600080fd5b919080806020026020016040519081016040528093929190818152602001838360200280828437600081840152601f19601f8201169050808301925050505050505091929192905050506129d1565b005b348015610bf357600080fd5b50610c3660048036036020811015610c0a57600080fd5b81019080803573ffffffffffffffffffffffffffffffffffffffff169060200190929190505050612a98565b604051808215151515815260200191505060405180910390f35b348015610c5c57600080fd5b50610cab60048036036040811015610c7357600080fd5b81019080803573ffffffffffffffffffffffffffffffffffffffff169060200190929190803515159060200190929190505050612bcd565b604051808215151515815260200191505060405180910390f35b348015610cd157600080fd5b50610d1460048036036020811015610ce857600080fd5b81019080803573ffffffffffffffffffffffffffffffffffffffff169060200190929190505050612d97565b604051808273ffffffffffffffffffffffffffffffffffffffff1673ffffffffffffffffffffffffffffffffffffffff16815260200191505060405180910390f35b348015610d6257600080fd5b50610de660048036036060811015610d7957600080fd5b81019080803573ffffffffffffffffffffffffffffffffffffffff16906020019092919080604001906002806020026040519081016040528092919082600260200280828437600081840152601f19601f8201169050808301925050505050509192919290505050612edf565b604051808215151515815260200191505060405180910390f35b348015610e0c57600080fd5b50610e4f60048036036020811015610e2357600080fd5b81019080803573ffffffffffffffffffffffffffffffffffffffff1690602001909291905050506130a1565b604051808215151515815260200191505060405180910390f35b348015610e7557600080fd5b50610ef960048036036060811015610e8c57600080fd5b81019080803573ffffffffffffffffffffffffffffffffffffffff16906020019092919080604001906002806020026040519081016040528092919082600260200280828437600081840152601f19601f82011690508083019250505050505091929192905050506131d6565b604051808215151515815260200191505060405180910390f35b348015610f1f57600080fd5b50610f6260048036036020811015610f3657600080fd5b81019080803573ffffffffffffffffffffffffffffffffffffffff169060200190929190505050613398565b604051808215151515815260200191505060405180910390f35b348015610f8857600080fd5b50610fcb60048036036020811015610f9f57600080fd5b81019080803573ffffffffffffffffffffffffffffffffffffffff169060200190929190505050613505565b005b348015610fd957600080fd5b5061109060048036036020811015610ff057600080fd5b810190808035906020019064010000000081111561100d57600080fd5b82018360208201111561101f57600080fd5b8035906020019184602083028401116401000000008311171561104157600080fd5b919080806020026020016040519081016040528093929190818152602001838360200280828437600081840152601f19601f82011690508083019250505050505050919291929050505061358d565b005b60006110a833600661365490919063ffffffff16565b151561111c576040517f08c379a00000000000000000000000000000000000000000000000000000000081526004018080602001828103825260178152602001807f43616c6c6572206973206e6f7420616e2061646d696e2e00000000000000000081525060200191505060405180910390fd5b826000600260008373ffffffffffffffffffffffffffffffffffffffff1673ffffffffffffffffffffffffffffffffffffffff168152602001908152602001600020541115156111d4576040517f08c379a00000000000000000000000000000000000000000000000000000000081526004018080602001828103825260148152602001807f5573657220646f6573206e6f742065786973742e00000000000000000000000081525060200191505060405180910390fd5b60006001600260008773ffffffffffffffffffffffffffffffffffffffff1673ffffffffffffffffffffffffffffffffffffffff1681526020019081526020016000205481548110151561122457fe5b90600052602060002090600502019050838160010160006101000a81548173ffffffffffffffffffffffffffffffffffffffff021916908373ffffffffffffffffffffffffffffffffffffffff16021790555060019250505092915050565b6000816000600260008373ffffffffffffffffffffffffffffffffffffffff1673ffffffffffffffffffffffffffffffffffffffff1681526020019081526020016000205411151561133d576040517f08c379a00000000000000000000000000000000000000000000000000000000081526004018080602001828103825260148152602001807f5573657220646f6573206e6f742065786973742e00000000000000000000000081525060200191505060405180910390fd5b60006001600260008673ffffffffffffffffffffffffffffffffffffffff1673ffffffffffffffffffffffffffffffffffffffff1681526020019081526020016000205481548110151561138d57fe5b906000526020600020906005020190508060010160149054906101000a900460ff1692505050919050565b600760009054906101000a900473ffffffffffffffffffffffffffffffffffffffff1681565b6000816000600260008373ffffffffffffffffffffffffffffffffffffffff1673ffffffffffffffffffffffffffffffffffffffff16815260200190815260200160002054141515611498576040517f08c379a00000000000000000000000000000000000000000000000000000000081526004018080602001828103825260148152602001807f5573657220616c7265616479206578697374732e00000000000000000000000081525060200191505060405180910390fd5b6114a06139e5565b610120604051908101604052808573ffffffffffffffffffffffffffffffffffffffff168152602001600115158152602001600073ffffffffffffffffffffffffffffffffffffffff16815260200186151581526020016040805190810160405280600160ff168152602001601960ff1681525081526020016040805190810160405280600360ff16815260200160c860ff168152508152602001600a61ffff16815260200160001515815260200160001515815250905060006001829080600181540180825580915050906001820390600052602060002090600502016000909192909190915060008201518160000160006101000a81548173ffffffffffffffffffffffffffffffffffffffff021916908373ffffffffffffffffffffffffffffffffffffffff16021790555060208201518160000160146101000a81548160ff02191690831515021790555060408201518160010160006101000a81548173ffffffffffffffffffffffffffffffffffffffff021916908373ffffffffffffffffffffffffffffffffffffffff16021790555060608201518160010160146101000a81548160ff02191690831515021790555060808201518160020190600261166d929190613a76565b5060a082015181600301906002611685929190613a76565b5060c08201518160040160006101000a81548161ffff021916908361ffff16021790555060e08201518160040160026101000a81548160ff0219169083151502179055506101008201518160040160036101000a81548160ff0219169083151502179055505050905060006001820390508160038190555080600260008873ffffffffffffffffffffffffffffffffffffffff1673ffffffffffffffffffffffffffffffffffffffff168152602001908152602001600020819055508094505050505092915050565b60018181548110151561175d57fe5b90600052602060002090600502016000915090508060000160009054906101000a900473ffffffffffffffffffffffffffffffffffffffff16908060000160149054906101000a900460ff16908060010160009054906101000a900473ffffffffffffffffffffffffffffffffffffffff16908060010160149054906101000a900460ff16908060040160009054906101000a900461ffff16908060040160029054906101000a900460ff16908060040160039054906101000a900460ff16905087565b611829613b10565b816000600260008373ffffffffffffffffffffffffffffffffffffffff1673ffffffffffffffffffffffffffffffffffffffff168152602001908152602001600020541115156118e1576040517f08c379a00000000000000000000000000000000000000000000000000000000081526004018080602001828103825260148152602001807f5573657220646f6573206e6f742065786973742e00000000000000000000000081525060200191505060405180910390fd5b60006001600260008673ffffffffffffffffffffffffffffffffffffffff1673ffffffffffffffffffffffffffffffffffffffff1681526020019081526020016000205481548110151561193157fe5b90600052602060002090600502019050806003016002806020026040519081016040528092919082600280156119a2576020028201916000905b82829054906101000a900460ff1660ff168152602001906001019060208260000104928301926001038202915080841161196b5790505b505050505092505050919050565b60006119c633600661365490919063ffffffff16565b1515611a3a576040517f08c379a00000000000000000000000000000000000000000000000000000000081526004018080602001828103825260178152602001807f43616c6c6572206973206e6f7420616e2061646d696e2e00000000000000000081525060200191505060405180910390fd5b826000600260008373ffffffffffffffffffffffffffffffffffffffff1673ffffffffffffffffffffffffffffffffffffffff16815260200190815260200160002054111515611af2576040517f08c379a00000000000000000000000000000000000000000000000000000000081526004018080602001828103825260148152602001807f5573657220646f6573206e6f742065786973742e00000000000000000000000081525060200191505060405180910390fd5b60006001600260008773ffffffffffffffffffffffffffffffffffffffff1673ffffffffffffffffffffffffffffffffffffffff16815260200190815260200160002054815481101515611b4257fe5b90600052602060002090600502019050838160040160006101000a81548161ffff021916908361ffff16021790555060019250505092915050565b6000611b9333600661365490919063ffffffff16565b1515611c07576040517f08c379a00000000000000000000000000000000000000000000000000000000081526004018080602001828103825260178152602001807f43616c6c6572206973206e6f7420616e2061646d696e2e00000000000000000081525060200191505060405180910390fd5b826000600260008373ffffffffffffffffffffffffffffffffffffffff1673ffffffffffffffffffffffffffffffffffffffff16815260200190815260200160002054111515611cbf576040517f08c379a00000000000000000000000000000000000000000000000000000000081526004018080602001828103825260148152602001807f5573657220646f6573206e6f742065786973742e00000000000000000000000081525060200191505060405180910390fd5b60006001600260008773ffffffffffffffffffffffffffffffffffffffff1673ffffffffffffffffffffffffffffffffffffffff16815260200190815260200160002054815481101515611d0f57fe5b90600052602060002090600502019050838160040160026101000a81548160ff02191690831515021790555060019250505092915050565b6000611d5d33600661365490919063ffffffff16565b1515611dd1576040517f08c379a00000000000000000000000000000000000000000000000000000000081526004018080602001828103825260178152602001807f43616c6c6572206973206e6f7420616e2061646d696e2e00000000000000000081525060200191505060405180910390fd5b826000600260008373ffffffffffffffffffffffffffffffffffffffff1673ffffffffffffffffffffffffffffffffffffffff16815260200190815260200160002054111515611e89576040517f08c379a00000000000000000000000000000000000000000000000000000000081526004018080602001828103825260148152602001807f5573657220646f6573206e6f742065786973742e00000000000000000000000081525060200191505060405180910390fd5b60006001600260008773ffffffffffffffffffffffffffffffffffffffff1673ffffffffffffffffffffffffffffffffffffffff16815260200190815260200160002054815481101515611ed957fe5b90600052602060002090600502019050838160040160036101000a81548160ff02191690831515021790555060019250505092915050565b600860009054906101000a900473ffffffffffffffffffffffffffffffffffffffff1681565b611f3f613b10565b816000600260008373ffffffffffffffffffffffffffffffffffffffff1673ffffffffffffffffffffffffffffffffffffffff16815260200190815260200160002054111515611ff7576040517f08c379a00000000000000000000000000000000000000000000000000000000081526004018080602001828103825260148152602001807f5573657220646f6573206e6f742065786973742e00000000000000000000000081525060200191505060405180910390fd5b60006001600260008673ffffffffffffffffffffffffffffffffffffffff1673ffffffffffffffffffffffffffffffffffffffff1681526020019081526020016000205481548110151561204757fe5b90600052602060002090600502019050806002016002806020026040519081016040528092919082600280156120b8576020028201916000905b82829054906101000a900460ff1660ff16815260200190600101906020826000010492830192600103820291508084116120815790505b505050505092505050919050565b60026020528060005260406000206000915090505481565b6000816000600260008373ffffffffffffffffffffffffffffffffffffffff1673ffffffffffffffffffffffffffffffffffffffff16815260200190815260200160002054111515612198576040517f08c379a00000000000000000000000000000000000000000000000000000000081526004018080602001828103825260148152602001807f5573657220646f6573206e6f742065786973742e00000000000000000000000081525060200191505060405180910390fd5b60006001600260008673ffffffffffffffffffffffffffffffffffffffff1673ffffffffffffffffffffffffffffffffffffffff168152602001908152602001600020548154811015156121e857fe5b906000526020600020906005020190508060040160029054906101000a900460ff1692505050919050565b60035481565b61222161285d565b1515612295576040517f08c379a00000000000000000000000000000000000000000000000000000000081526004018080602001828103825260208152602001807f4f776e61626c653a2063616c6c6572206973206e6f7420746865206f776e657281525060200191505060405180910390fd5b600073ffffffffffffffffffffffffffffffffffffffff166000809054906101000a900473ffffffffffffffffffffffffffffffffffffffff1673ffffffffffffffffffffffffffffffffffffffff167f8be0079c531659141344cd1fd0a4f28419497f9722a3daafe3b4186f6b6457e060405160405180910390a360008060006101000a81548173ffffffffffffffffffffffffffffffffffffffff021916908373ffffffffffffffffffffffffffffffffffffffff160217905550565b6000816000600260008373ffffffffffffffffffffffffffffffffffffffff1673ffffffffffffffffffffffffffffffffffffffff1681526020019081526020016000205411151561240e576040517f08c379a00000000000000000000000000000000000000000000000000000000081526004018080602001828103825260148152602001807f5573657220646f6573206e6f742065786973742e00000000000000000000000081525060200191505060405180910390fd5b60006001600260008673ffffffffffffffffffffffffffffffffffffffff1673ffffffffffffffffffffffffffffffffffffffff1681526020019081526020016000205481548110151561245e57fe5b906000526020600020906005020190508060040160009054906101000a900461ffff1692505050919050565b60006124a033600661365490919063ffffffff16565b1515612514576040517f08c379a00000000000000000000000000000000000000000000000000000000081526004018080602001828103825260178152602001807f43616c6c6572206973206e6f7420616e2061646d696e2e00000000000000000081525060200191505060405180910390fd5b826000600260008373ffffffffffffffffffffffffffffffffffffffff1673ffffffffffffffffffffffffffffffffffffffff168152602001908152602001600020541115156125cc576040517f08c379a00000000000000000000000000000000000000000000000000000000081526004018080602001828103825260148152602001807f5573657220646f6573206e6f742065786973742e00000000000000000000000081525060200191505060405180910390fd5b60006001600260008773ffffffffffffffffffffffffffffffffffffffff1673ffffffffffffffffffffffffffffffffffffffff1681526020019081526020016000205481548110151561261c57fe5b90600052602060002090600502019050838160010160146101000a81548160ff02191690831515021790555060019250505092915050565b600061266a33600661365490919063ffffffff16565b15156126de576040517f08c379a00000000000000000000000000000000000000000000000000000000081526004018080602001828103825260178152602001807f43616c6c6572206973206e6f7420616e2061646d696e2e00000000000000000081525060200191505060405180910390fd5b826000600260008373ffffffffffffffffffffffffffffffffffffffff1673ffffffffffffffffffffffffffffffffffffffff16815260200190815260200160002054111515612796576040517f08c379a00000000000000000000000000000000000000000000000000000000081526004018080602001828103825260148152602001807f5573657220646f6573206e6f742065786973742e00000000000000000000000081525060200191505060405180910390fd5b60006001600260008773ffffffffffffffffffffffffffffffffffffffff1673ffffffffffffffffffffffffffffffffffffffff168152602001908152602001600020548154811015156127e657fe5b90600052602060002090600502019050838160040160008282829054906101000a900461ffff160192506101000a81548161ffff021916908361ffff16021790555060019250505092915050565b60008060009054906101000a900473ffffffffffffffffffffffffffffffffffffffff16905090565b60008060009054906101000a900473ffffffffffffffffffffffffffffffffffffffff1673ffffffffffffffffffffffffffffffffffffffff1661289f613777565b73ffffffffffffffffffffffffffffffffffffffff1614905090565b6128c361285d565b1515612937576040517f08c379a00000000000000000000000000000000000000000000000000000000081526004018080602001828103825260208152602001807f4f776e61626c653a2063616c6c6572206973206e6f7420746865206f776e657281525060200191505060405180910390fd5b60008090505b815181101561297e57612971828281518110151561295757fe5b90602001906020020151600561377f90919063ffffffff16565b808060010191505061293d565b5050565b60008060018381548110151561299457fe5b906000526020600020906005020190508060000160009054906101000a900473ffffffffffffffffffffffffffffffffffffffff16915050919050565b6129d961285d565b1515612a4d576040517f08c379a00000000000000000000000000000000000000000000000000000000081526004018080602001828103825260208152602001807f4f776e61626c653a2063616c6c6572206973206e6f7420746865206f776e657281525060200191505060405180910390fd5b60008090505b8151811015612a9457612a878282815181101515612a6d57fe5b90602001906020020151600661377f90919063ffffffff16565b8080600101915050612a53565b5050565b6000816000600260008373ffffffffffffffffffffffffffffffffffffffff1673ffffffffffffffffffffffffffffffffffffffff16815260200190815260200160002054111515612b52576040517f08c379a00000000000000000000000000000000000000000000000000000000081526004018080602001828103825260148152602001807f5573657220646f6573206e6f742065786973742e00000000000000000000000081525060200191505060405180910390fd5b60006001600260008673ffffffffffffffffffffffffffffffffffffffff1673ffffffffffffffffffffffffffffffffffffffff16815260200190815260200160002054815481101515612ba257fe5b906000526020600020906005020190508060000160149054906101000a900460ff1692505050919050565b6000612be333600661365490919063ffffffff16565b1515612c57576040517f08c379a00000000000000000000000000000000000000000000000000000000081526004018080602001828103825260178152602001807f43616c6c6572206973206e6f7420616e2061646d696e2e00000000000000000081525060200191505060405180910390fd5b826000600260008373ffffffffffffffffffffffffffffffffffffffff1673ffffffffffffffffffffffffffffffffffffffff16815260200190815260200160002054111515612d0f576040517f08c379a00000000000000000000000000000000000000000000000000000000081526004018080602001828103825260148152602001807f5573657220646f6573206e6f742065786973742e00000000000000000000000081525060200191505060405180910390fd5b60006001600260008773ffffffffffffffffffffffffffffffffffffffff1673ffffffffffffffffffffffffffffffffffffffff16815260200190815260200160002054815481101515612d5f57fe5b90600052602060002090600502019050838160000160146101000a81548160ff02191690831515021790555060019250505092915050565b6000816000600260008373ffffffffffffffffffffffffffffffffffffffff1673ffffffffffffffffffffffffffffffffffffffff16815260200190815260200160002054111515612e51576040517f08c379a00000000000000000000000000000000000000000000000000000000081526004018080602001828103825260148152602001807f5573657220646f6573206e6f742065786973742e00000000000000000000000081525060200191505060405180910390fd5b60006001600260008673ffffffffffffffffffffffffffffffffffffffff1673ffffffffffffffffffffffffffffffffffffffff16815260200190815260200160002054815481101515612ea157fe5b906000526020600020906005020190508060010160009054906101000a900473ffffffffffffffffffffffffffffffffffffffff1692505050919050565b6000612ef533600661365490919063ffffffff16565b1515612f69576040517f08c379a00000000000000000000000000000000000000000000000000000000081526004018080602001828103825260178152602001807f43616c6c6572206973206e6f7420616e2061646d696e2e00000000000000000081525060200191505060405180910390fd5b826000600260008373ffffffffffffffffffffffffffffffffffffffff1673ffffffffffffffffffffffffffffffffffffffff16815260200190815260200160002054111515613021576040517f08c379a00000000000000000000000000000000000000000000000000000000081526004018080602001828103825260148152602001807f5573657220646f6573206e6f742065786973742e00000000000000000000000081525060200191505060405180910390fd5b60006001600260008773ffffffffffffffffffffffffffffffffffffffff1673ffffffffffffffffffffffffffffffffffffffff1681526020019081526020016000205481548110151561307157fe5b906000526020600020906005020190508381600201906002613094929190613b32565b5060019250505092915050565b6000816000600260008373ffffffffffffffffffffffffffffffffffffffff1673ffffffffffffffffffffffffffffffffffffffff1681526020019081526020016000205411151561315b576040517f08c379a00000000000000000000000000000000000000000000000000000000081526004018080602001828103825260148152602001807f5573657220646f6573206e6f742065786973742e00000000000000000000000081525060200191505060405180910390fd5b60006001600260008673ffffffffffffffffffffffffffffffffffffffff1673ffffffffffffffffffffffffffffffffffffffff168152602001908152602001600020548154811015156131ab57fe5b906000526020600020906005020190508060040160039054906101000a900460ff1692505050919050565b60006131ec33600661365490919063ffffffff16565b1515613260576040517f08c379a00000000000000000000000000000000000000000000000000000000081526004018080602001828103825260178152602001807f43616c6c6572206973206e6f7420616e2061646d696e2e00000000000000000081525060200191505060405180910390fd5b826000600260008373ffffffffffffffffffffffffffffffffffffffff1673ffffffffffffffffffffffffffffffffffffffff16815260200190815260200160002054111515613318576040517f08c379a00000000000000000000000000000000000000000000000000000000081526004018080602001828103825260148152602001807f5573657220646f6573206e6f742065786973742e00000000000000000000000081525060200191505060405180910390fd5b60006001600260008773ffffffffffffffffffffffffffffffffffffffff1673ffffffffffffffffffffffffffffffffffffffff1681526020019081526020016000205481548110151561336857fe5b90600052602060002090600502019050838160030190600261338b929190613b32565b5060019250505092915050565b60006133ae33600461365490919063ffffffff16565b1515613448576040517f08c379a00000000000000000000000000000000000000000000000000000000081526004018080602001828103825260268152602001807f43616c6c6572206973206e6f7420616e20617373657420746f6b656e20636f6e81526020017f74726163742e000000000000000000000000000000000000000000000000000081525060400191505060405180910390fd5b60006001600260008573ffffffffffffffffffffffffffffffffffffffff1673ffffffffffffffffffffffffffffffffffffffff1681526020019081526020016000205481548110151561349857fe5b9060005260206000209060050201905060008160040160009054906101000a900461ffff1661ffff1611156134fb5760018160040160008282829054906101000a900461ffff160392506101000a81548161ffff021916908361ffff1602179055505b6001915050919050565b61350d61285d565b1515613581576040517f08c379a00000000000000000000000000000000000000000000000000000000081526004018080602001828103825260208152602001807f4f776e61626c653a2063616c6c6572206973206e6f7420746865206f776e657281525060200191505060405180910390fd5b61358a8161385c565b50565b61359561285d565b1515613609576040517f08c379a00000000000000000000000000000000000000000000000000000000081526004018080602001828103825260208152602001807f4f776e61626c653a2063616c6c6572206973206e6f7420746865206f776e657281525060200191505060405180910390fd5b60008090505b815181101561365057613643828281518110151561362957fe5b90602001906020020151600461377f90919063ffffffff16565b808060010191505061360f565b5050565b60008073ffffffffffffffffffffffffffffffffffffffff168273ffffffffffffffffffffffffffffffffffffffff1614151515613720576040517f08c379a00000000000000000000000000000000000000000000000000000000081526004018080602001828103825260228152602001807f526f6c65733a206163636f756e7420697320746865207a65726f20616464726581526020017f737300000000000000000000000000000000000000000000000000000000000081525060400191505060405180910390fd5b8260000160008373ffffffffffffffffffffffffffffffffffffffff1673ffffffffffffffffffffffffffffffffffffffff16815260200190815260200160002060009054906101000a900460ff16905092915050565b600033905090565b6137898282613654565b1515156137fe576040517f08c379a000000000000000000000000000000000000000000000000000000000815260040180806020018281038252601f8152602001807f526f6c65733a206163636f756e7420616c72656164792068617320726f6c650081525060200191505060405180910390fd5b60018260000160008373ffffffffffffffffffffffffffffffffffffffff1673ffffffffffffffffffffffffffffffffffffffff16815260200190815260200160002060006101000a81548160ff0219169083151502179055505050565b600073ffffffffffffffffffffffffffffffffffffffff168173ffffffffffffffffffffffffffffffffffffffff1614151515613927576040517f08c379a00000000000000000000000000000000000000000000000000000000081526004018080602001828103825260268152602001807f4f776e61626c653a206e6577206f776e657220697320746865207a65726f206181526020017f646472657373000000000000000000000000000000000000000000000000000081525060400191505060405180910390fd5b8073ffffffffffffffffffffffffffffffffffffffff166000809054906101000a900473ffffffffffffffffffffffffffffffffffffffff1673ffffffffffffffffffffffffffffffffffffffff167f8be0079c531659141344cd1fd0a4f28419497f9722a3daafe3b4186f6b6457e060405160405180910390a3806000806101000a81548173ffffffffffffffffffffffffffffffffffffffff021916908373ffffffffffffffffffffffffffffffffffffffff16021790555050565b61016060405190810160405280600073ffffffffffffffffffffffffffffffffffffffff168152602001600015158152602001600073ffffffffffffffffffffffffffffffffffffffff168152602001600015158152602001613a46613bcc565b8152602001613a53613bcc565b8152602001600061ffff1681526020016000151581526020016000151581525090565b826002601f01602090048101928215613aff5791602002820160005b83821115613ad057835183826101000a81548160ff021916908360ff1602179055509260200192600101602081600001049283019260010302613a92565b8015613afd5782816101000a81549060ff0219169055600101602081600001049283019260010302613ad0565b505b509050613b0c9190613bee565b5090565b6040805190810160405280600290602082028038833980820191505090505090565b826002601f01602090048101928215613bbb5791602002820160005b83821115613b8c57835183826101000a81548160ff021916908360ff1602179055509260200192600101602081600001049283019260010302613b4e565b8015613bb95782816101000a81549060ff0219169055600101602081600001049283019260010302613b8c565b505b509050613bc89190613bee565b5090565b6040805190810160405280600290602082028038833980820191505090505090565b613c1b91905b80821115613c1757600081816101000a81549060ff021916905550600101613bf4565b5090565b9056fea165627a7a7230582084e2c22ffdaed3702c177ff680bbc9af8974e127a464183253c4d045e87322500029",
  "source": "// SPDX-License-Identifier: MIT\r\n\r\npragma solidity >=0.4.21 <=0.8.0;\r\n\r\nimport \"@openzeppelin/contracts/access/Roles.sol\";\r\nimport \"@openzeppelin/contracts/ownership/Ownable.sol\";\r\n\r\n\r\ncontract Users is Ownable{\r\n    using Roles for Roles.Role;\r\n\r\n    struct User {\r\n        address userAddress;\r\n        bool active;\r\n        address referrerAddress;\r\n        bool merchant;\r\n        uint8[2] transactionFeeValues;\r\n        uint8[2] exchangeFeeValues;\r\n        uint16 remainingFreeTransactions;\r\n        bool superReferrer;\r\n        bool superUser;\r\n    }\r\n\r\n    User[] public users;\r\n    mapping(address => uint256) public addressToUserIndex;\r\n    uint256 public usersCount;\r\n\r\n    Roles.Role assetTokenContracts;\r\n    Roles.Role digitallContracts;\r\n    Roles.Role admins;\r\n\r\n    address public InOnePlaceWallet =\r\n        0xceaCCe738B5c4e03b45561bFB5b3796B63cFeCDD;\r\n    address public PrizeDrawWallet = 0xa1c86295E88fCfaDEf9FB518dC7201C85699D401;\r\n\r\n    constructor() public {\r\n        User memory user = User({\r\n            userAddress: address(this),\r\n            active: false,\r\n            referrerAddress: address(0),\r\n            merchant: true,\r\n            transactionFeeValues: [0, 1],\r\n            exchangeFeeValues: [0, 1],\r\n            remainingFreeTransactions: 0,\r\n            superReferrer: true,\r\n            superUser: true\r\n        });\r\n        uint256 newUsersCount = users.push(user);\r\n        uint256 newUserId = newUsersCount - 1;\r\n        usersCount = newUsersCount;\r\n        addressToUserIndex[address(this)] = newUserId;\r\n    }\r\n\r\n    modifier onlyAssetTokenContracts() {\r\n        require(\r\n            assetTokenContracts.has(msg.sender),\r\n            \"Caller is not an asset token contract.\"\r\n        );\r\n        _;\r\n    }\r\n\r\n    modifier onlyAdmins() {\r\n        require(admins.has(msg.sender), \"Caller is not an admin.\");\r\n        _;\r\n    }\r\n\r\n    modifier userExists(address userAddress) {\r\n        require(addressToUserIndex[userAddress] > 0, \"User does not exist.\");\r\n        _;\r\n    }\r\n\r\n    modifier userDoesNotExist(address userAddress) {\r\n        require(addressToUserIndex[userAddress] == 0, \"User already exists.\");\r\n        _;\r\n    }\r\n\r\n    modifier onlyDigitallContracts() {\r\n        require(\r\n            digitallContracts.has(msg.sender),\r\n            \"Caller is Digitall contract.\"\r\n        );\r\n        _;\r\n    }\r\n\r\n    function addDigitallContracts(address[] memory newContracts)\r\n        public\r\n        onlyOwner\r\n    {\r\n        for (uint256 i = 0; i < newContracts.length; i++) {\r\n            digitallContracts.add(newContracts[i]);\r\n        }\r\n    }\r\n\r\n    function addAssetTokenContracts(address[] memory newContracts)\r\n        public\r\n        onlyOwner\r\n    {\r\n        for (uint256 i = 0; i < newContracts.length; i++) {\r\n            assetTokenContracts.add(newContracts[i]);\r\n        }\r\n    }\r\n\r\n    function addAdmins(address[] memory newAdmins) public onlyOwner {\r\n        for (uint256 i = 0; i < newAdmins.length; i++) {\r\n            admins.add(newAdmins[i]);\r\n        }\r\n    }\r\n\r\n    function createUser(bool isMerchant,address accountAddress)\r\n        public\r\n        userDoesNotExist(accountAddress)\r\n        returns (uint256)\r\n    {\r\n        User memory user = User({\r\n            // userAddress: msg.sender,\r\n            userAddress: accountAddress,\r\n            active: true,\r\n            referrerAddress: address(0),\r\n            merchant: isMerchant,\r\n            transactionFeeValues: [1, 25],\r\n            exchangeFeeValues: [3, 200],\r\n            remainingFreeTransactions: 10,\r\n            superReferrer: false,\r\n            superUser: false\r\n        });\r\n        uint256 newUsersCount = users.push(user);\r\n        uint256 newUserId = newUsersCount - 1;\r\n        usersCount = newUsersCount;\r\n        addressToUserIndex[accountAddress] = newUserId;\r\n        // addressToUserIndex[msg.sender] = newUserId;\r\n        return newUserId;\r\n    }\r\n\r\n    function isActive(address userAddress)\r\n        public\r\n        view\r\n        userExists(userAddress)\r\n        returns (bool)\r\n    {\r\n        User storage user = users[addressToUserIndex[userAddress]];\r\n        return user.active;\r\n    }\r\n\r\n    function isSuperUser(address userAddress)\r\n        public\r\n        view\r\n        userExists(userAddress)\r\n        returns (bool)\r\n    {\r\n        User storage user = users[addressToUserIndex[userAddress]];\r\n        return user.superUser;\r\n    }\r\n\r\n    function isSuperReferrer(address userAddress)\r\n        public\r\n        view\r\n        userExists(userAddress)\r\n        returns (bool)\r\n    {\r\n        User storage user = users[addressToUserIndex[userAddress]];\r\n        return user.superReferrer;\r\n    }\r\n\r\n    function isMerchant(address userAddress)\r\n        public\r\n        view\r\n        userExists(userAddress)\r\n        returns (bool)\r\n    {\r\n        User storage user = users[addressToUserIndex[userAddress]];\r\n        return user.merchant;\r\n    }\r\n\r\n    function getUserAddress(uint256 _index) public view returns (address) {\r\n        User storage user = users[_index];\r\n        return user.userAddress;\r\n    }\r\n\r\n    function getTransactionFeeValues(address userAddress)\r\n        public\r\n        view\r\n        userExists(userAddress)\r\n        returns (uint8[2] memory)\r\n    {\r\n        User storage user = users[addressToUserIndex[userAddress]];\r\n        return user.transactionFeeValues;\r\n    }\r\n\r\n    function getRemainingFreeTransactions(address userAddress)\r\n        public\r\n        view\r\n        userExists(userAddress)\r\n        returns (uint16)\r\n    {\r\n        User storage user = users[addressToUserIndex[userAddress]];\r\n        return user.remainingFreeTransactions;\r\n    }\r\n\r\n    function getReferrerAddress(address userAddress)\r\n        public\r\n        view\r\n        userExists(userAddress)\r\n        returns (address)\r\n    {\r\n        User storage user = users[addressToUserIndex[userAddress]];\r\n        return user.referrerAddress;\r\n    }\r\n\r\n    function getExchangeFeeValues(address userAddress)\r\n        public\r\n        view\r\n        userExists(userAddress)\r\n        returns (uint8[2] memory)\r\n    {\r\n        User storage user = users[addressToUserIndex[userAddress]];\r\n        return user.exchangeFeeValues;\r\n    }\r\n\r\n    function setStatus(address userAddress, bool newStatus)\r\n        public\r\n        onlyAdmins\r\n        userExists(userAddress)\r\n        returns (bool)\r\n    {\r\n        User storage user = users[addressToUserIndex[userAddress]];\r\n        user.active = newStatus;\r\n        return true;\r\n    }\r\n\r\n    function setMerchant(address userAddress, bool newMerchant)\r\n        public\r\n        onlyAdmins\r\n        userExists(userAddress)\r\n        returns (bool)\r\n    {\r\n        User storage user = users[addressToUserIndex[userAddress]];\r\n        user.merchant = newMerchant;\r\n        return true;\r\n    }\r\n\r\n    function setSuperUser(address userAddress, bool newStatus)\r\n        public\r\n        onlyAdmins\r\n        userExists(userAddress)\r\n        returns (bool)\r\n    {\r\n        User storage user = users[addressToUserIndex[userAddress]];\r\n        user.superUser = newStatus;\r\n        return true;\r\n    }\r\n\r\n    function setSuperReferrer(address userAddress, bool newStatus)\r\n        public\r\n        onlyAdmins\r\n        userExists(userAddress)\r\n        returns (bool)\r\n    {\r\n        User storage user = users[addressToUserIndex[userAddress]];\r\n        user.superReferrer = newStatus;\r\n        return true;\r\n    }\r\n\r\n    function setExchangeFeeValues(\r\n        address userAddress,\r\n        uint8[2] memory newExchangeFeeValues\r\n    ) public onlyAdmins userExists(userAddress) returns (bool) {\r\n        User storage user = users[addressToUserIndex[userAddress]];\r\n        user.exchangeFeeValues = newExchangeFeeValues;\r\n        return true;\r\n    }\r\n\r\n    function setTransactionFeeValues(\r\n        address userAddress,\r\n        uint8[2] memory newTransactionFeeValues\r\n    ) public onlyAdmins userExists(userAddress) returns (bool) {\r\n        User storage user = users[addressToUserIndex[userAddress]];\r\n        user.transactionFeeValues = newTransactionFeeValues;\r\n        return true;\r\n    }\r\n\r\n    function increaseRemainingFreeTransactions(\r\n        address userAddress,\r\n        uint16 amount\r\n    ) public onlyAdmins userExists(userAddress) returns (bool) {\r\n        User storage user = users[addressToUserIndex[userAddress]];\r\n        user.remainingFreeTransactions += amount;\r\n        return true;\r\n    }\r\n\r\n    function setRemainingFreeTransactions(\r\n        address userAddress,\r\n        uint16 newRemainingFreeTransactions\r\n    ) public onlyAdmins userExists(userAddress) returns (bool) {\r\n        User storage user = users[addressToUserIndex[userAddress]];\r\n        user.remainingFreeTransactions = newRemainingFreeTransactions;\r\n        return true;\r\n    }\r\n\r\n    function setReferrerAddress(address userAddress, address referrerAddress)\r\n        public\r\n        onlyAdmins\r\n        userExists(userAddress)\r\n        returns (bool)\r\n    {\r\n        User storage user = users[addressToUserIndex[userAddress]];\r\n        user.referrerAddress = referrerAddress;\r\n        return true;\r\n    }\r\n\r\n    function decrementFreeTransactions(address userAddress)\r\n        public\r\n        onlyAssetTokenContracts\r\n        returns (bool)\r\n    {\r\n        User storage user = users[addressToUserIndex[userAddress]];\r\n\r\n        if (user.remainingFreeTransactions > 0) {\r\n            user.remainingFreeTransactions -= 1;\r\n        }\r\n\r\n        return true;\r\n    }\r\n}\r\n",
  "sourcePath": "C:\\Users\\user\\Documents\\projects\\truffle\\contracts\\Users.sol",
  "compiler": {
    "name": "solc",
    "version": "0.5.0+commit.1d4f565a.Emscripten.clang"
  },
  "schemaVersion": "3.4.11",
  "updatedAt": "2023-02-11T00:45:26.293Z",
  "devdoc": {
    "methods": {
      "isOwner()": {
        "details": "Returns true if the caller is the current owner."
      },
      "owner()": {
        "details": "Returns the address of the current owner."
      },
      "renounceOwnership()": {
        "details": "Leaves the contract without owner. It will not be possible to call `onlyOwner` functions anymore. Can only be called by the current owner.     * NOTE: Renouncing ownership will leave the contract without an owner, thereby removing any functionality that is only available to the owner."
      },
      "transferOwnership(address)": {
        "details": "Transfers ownership of the contract to a new account (`newOwner`). Can only be called by the current owner."
      }
    }
  },
  "userdoc": {
    "methods": {}
  }
}